:020000040000FA
:04000000DDEF05F03B
:100800000054454C462E3A373737323033353100B5
:100810005041424C4F5F5A4150455441004375721C
:10082000736F20504943313846005041626C6F204D
:100830005A61706574610040474D41494C2E434FE9
:100840004D004D554E444F00484F4C410000000EA6
:10085000926E000E956EFBEC04F0000E0E6E000E14
:100860000D6E0EBE06D00E501FE1040E0D5CD8B00A
:100870001BD00DC00BF0010E0C6E0B2A02D0D890CD
:100880000C360B2EFCD70C50896E040E0C6E8E0E9F
:100890000B6E120EE82EFED70B2EFCD70C2EFAD7BD
:1008A00000D00D4A0E2ADDD7F2EC05F0010E046EE1
:1008B000010E34EC05F01D0E056E080E066E5CECA4
:1008C00005F0010E046E020E34EC05F0100E056EFC
:1008D000080E066E5CEC05F0070E026ED00E016E7F
:1008E0009DEC05F0F2EC05F0010E046E010E34EC07
:1008F00005F0480E056E080E066E5CEC05F0010E64
:10090000046E020E34EC05F0420E056E080E066E03
:100910005CEC05F0070E026ED00E016E9DEC05F04A
:10092000F2EC05F0010E046E010E34EC05F02A0E17
:10093000056E080E066E5CEC05F0010E046E020EEC
:1009400034EC05F0370E056E080E066E5CEC05F013
:10095000070E026ED00E016E9DEC05F0070E026EC2
:10096000D00E016E9DEC05F0000E106E000E0F6EA5
:10097000010E026E2C0E016E9DEC05F0EBEC05F005
:100980000F4A102A105004E10F0E0F5CD8A0F0D7C8
:10099000000E106E000E0F6E010E026E2C0E016E18
:1009A0009DEC05F0E4EC05F00F4A102A105004E12C
:1009B0000F0E0F5CD8A0F0D7F2EC05F0010E046E1C
:1009C000010E34EC05F0010E056E080E066E5CECAF
:1009D00005F0010E046E020E34EC05F04F0E81ECB2
:1009E00005F04B0E81EC05F0070E026ED00E016E85
:1009F0009DEC05F059D7000EB7EC05F01A0E046E09
:100A0000F80EE82EFED7042EFCD700D0030ECDEC56
:100A100005F0070E046E7D0EE82EFED7042EFCD7DF
:100A200000F0030ECDEC05F00F0E046E480EE82E1C
:100A3000FED7042EFCD7030ECDEC05F0020ECDEC54
:100A400005F0020ECDEC05F0080ECDEC05F0000E21
:100A5000CDEC05F00C0ECDEC05F0000ECDEC05F064
:100A6000060ECDEC05F01200056E0504D8A410D0DA
:100A700004507F0F086E08380F0B066E08500F0BDE
:100A8000076E0650CDEC05F00750CDEC05F01200D6
:100A9000020E0518D8A412000450BF0F086E0838C3
:100AA0000F0B066E08500F0B076E0650CDEC05F0CD
:100AB0000750CDEC05F01200000E0A6E000E096E14
:100AC00010D009500524076E0A500620086E07C092
:100AD000F6FF08C0F7FF0800F55081EC05F0094A61
:100AE0000A2A09500524076E0A500620086E07C01E
:100AF000F6FF08C0F7FF0800F5500009D8B412004F
:100B0000E0D7046E04500F0B026E0450F00B036E1E
:100B1000838403380F0BB7EC05F083860D0EE82EA7
:100B2000FED700F083960250B7EC05F083860D0ED9
:100B3000E82EFED700F083961200000E046E000E21
:100B4000036E0ED0000E066E000E056E054A062AD4
:100B5000065004E1A50E055CD8A0F8D7034A042A84
:100B60000150035C02500458D8B01200EBD7016E5C
:100B700001A002D0838801D0839801A202D0838A89
:100B800001D0839A01A402D0838C01D0839C01A65A
:100B900002D0838E1200839E1200036E8394035052
:100BA000B7EC05F08386060E026E300EE82EFED7F7
:100BB000022EFCD700D083961200000EF86E080EAD
:100BC000F76E000127EF04F0010ECDEC05F00C0EDE
:100BD000CDEC05F01200010ECDEC05F0080ECDECC9
:100BE00005F01200000ECDEC05F0010ECDEC05F085
:020BF0001200F1
:020000040020DA
:08000000FFFFFFFFFFFFFFFF00
:020000040030CA
:0E000000000C1F1EFF8381FF0FC00FE00F409A
:00000001FF
