:020000040000FA
:0400000041EF00F0DC
:100018000680D8CF01F0E8CF02F0E0CF03F0F2BAC3
:10002800F2A423D005BE0ED0055004E1650E045C91
:10003800D8A008D005BE05D0055004E1C90E045C5F
:10004800D8A0899005BE0AD0055004E1C90E045C09
:10005800D8A004D0000E056E000E046E044A052ACE
:10006800F294EC0ED76E770ED66E03C0E0FF02C096
:10007800E8FF01C0D8FF0690100073EF00F0F29E71
:10008800D59AD596D550F80B0209D56ED59CEC0EAD
:10009800D76E770ED66ED59EF28AF294F28CF28ED7
:1000A800120043EC00F064EC00F0D58E05BE06D0DB
:1000B8000550FCE1660E045CD8B0F8D78980F6D705
:1000C8000F0EC112010E936E000E926E010E8A6E13
:1000D800000E896E000E056E000E046E1200056A91
:0C00E800046A06900692000155EF00F03B
:020000040020DA
:08000000FFFFFFFFFFFFFFFF00
:020000040030CA
:0E000000000C1F1FFF8381FF0FC00FE00F4099
:00000001FF
