:020000040000FA
:0400000007EF00F016
:0A0008003B82ACED04F03FEF08F07E
:1008000000524553554C5441444F5321212121213D
:100810000050726570617261646F73212121212122
:1008200000504F52203520536567756E646F73001A
:100830004C434420434F4E5441444F5200434F4E8B
:0708400054414E444F00003B
:10084800030E956E13EC08F0ACEC05F08EEC08F096
:10085800010E286E010ED2EC06F0300E296E080E3D
:100868002A6EE6EC05F0010E286E020ED2EC06F0B8
:10087800210E296E080E2A6EE6EC05F03D0E0001E9
:100888006D6FE10E6C6F3F0EE82EFED76C2FFCD714
:100898006D2FFAD700D08EEC08F000016E516F1161
:1008A800D8A41DD0010E286E010ED2EC06F0110E50
:1008B800296E080E2A6EE6EC05F00B0E00016D6F2E
:1008C800260E6C6F5D0EE82EFED76C2FFCD76D2FB1
:1008D800FAD700D0000E00016F6F010E6E6F83A073
:1008E800DCD76E056F11D8A4D8D78EEC08F03D0E72
:1008F800296E080E2A6EE6EC05F00B0E00016D6FEE
:10090800260E6C6F5D0EE82EFED76C2FFCD76D2F70
:10091800FAD700D0000E0001716F030E706F70C01F
:1009280068F071C069F0AAEC06F000017007D8A061
:10093800710771AFF4D7000E6F6F050E6E6F000E62
:10094800366E000E356E52EC08F084EC08F0A5D730
:100958000600D9CF1FF0DACF20F0F6CF21F0F7CF7D
:1009680022F0F8CF23F0F5CF24F0F2BAF2A437D072
:1009780036BE2ED0365004E1640E355CD8A028D09F
:10098800F29AF096F090010E046E010EFAEC06F061
:10099800010E056E080E066E1FEC06F039C019F040
:1009A8003AC01AF022EC07F03D0E1E6EE10E1D6EE5
:1009B800400EE82EFED71D2EFCD71E2EFAD7000EAD
:1009C80000016F6F000E6E6F000E3A6E000E396EEA
:1009D800354A362AF294EC0ED76E770ED66EF0B6FC
:1009E800F0A003D0394A3A2AF090F29024C0F5FFDB
:1009F80023C0F8FF22C0F7FF21C0F6FF20C0DAFFAE
:100A08001FC0D9FF3B9211002EC032F02FC033F027
:100A180032C025F033C026F030C027F031C028F0AE
:100A280058EC06F025C032F026C033F02C4A2D2AA7
:100A380032503310D8A4ECD72CC0D9FF2DC0DAFF20
:100A4800000EDF6E2C06D8A02D062EC025F02FC074
:100A580026F030C027F031C028F048EC07F02550C8
:100A6800346E2EC025F02FC026F030C027F031C0DC
:100A780028F058EC06F025C02EF026C02FF0090EFD
:100A8800346402D0070E3426300E34262CC0D9FF29
:100A98002DC0DAFF34C0DFFF2C06D8A02D062E505B
:100AA8002F10D8A4D2D72C4A2D2A12000AC00EF033
:100AB8000BC00FF00EC001F00FC002F00CC003F025
:100AC8000DC004F081EC06F001C00EF002C00FF07A
:100AD800084A092A0E500F10D8A4ECD708C0D9FF2D
:100AE80009C0DAFF000EDF6E0806D8A009060AC0A2
:100AF80001F00BC002F00CC003F00DC004F069EC6B
:100B080007F00150106E0AC001F00BC002F00CC0D3
:100B180003F00DC004F081EC06F001C00AF002C039
:100B28000BF0090E106402D0070E1026300E1026A6
:100B380008C0D9FF09C0DAFF10C0DFFF0806D8A037
:100B480009060A500B10D8A4D2D7084A092A12005D
:100B5800000EFDEC07F0680E286EE40EE82EFED7B6
:100B6800282EFCD700D0030E64EC08F01A0E286E6D
:100B7800F80EE82EFED7282EFCD700D0030E64EC22
:100B880008F03A0E286E230EE82EFED7282EFCD742
:100B980000F0030E64EC08F0020E64EC08F0020E9C
:100BA80064EC08F0080E64EC08F0000E64EC08F041
:100BB8000C0E64EC08F0000E64EC08F0060E64EC11
:100BC80008F01200000E2E6E000E2D6E1AD02D5059
:100BD80029242B6E2E502A202C6E2BC0F6FF2CC0F9
:100BE800F7FFF86A070EF76403D00800F55005D040
:100BF800F6CFD9FFF7CFDAFFDF50C5EC07F02D4A63
:100C08002E2A2D5029242B6E2E502A202C6E2BC0D4
:100C1800F6FF2CC0F7FFF86A070EF76403D0080048
:100C2800F55005D0F6CFD9FFF7CFDAFFDF5000092E
:100C3800D8B41200CCD7000E0A6E000E096E1AD076
:100C480009500524076E0A500620086E07C0F6FFF3
:100C580008C0F7FFF86A070EF76403D00800F550DC
:100C680005D0F6CFD9FFF7CFDAFFDF50E1EC07F078
:100C7800094A0A2A09500524076E0A500620086EF8
:100C880007C0F6FF08C0F7FFF86A070EF76403D03D
:100C98000800F55005D0F6CFD9FFF7CFDAFFDF50BF
:100CA8000009D8B41200CCD7000E2A6E000E296EA7
:100CB80027502810D8B41CD0010E2B6E04D0D89021
:100CC800273628362B2A28AEFAD7D89029362A363E
:100CD8002750255C28502658D8A005D02750255ED7
:100CE8002850265A2980D890283227322B2EEDD723
:100CF80029C025F02AC026F01200000E066E000E4C
:100D0800056E03500410D8B41CD0010E076E04D031
:100D1800D89003360436072A04AEFAD7D890053699
:100D280006360350015C04500258D8A005D0035081
:100D3800015E0450025A0580D89004320332072E0F
:100D4800EDD705C001F006C002F01200720E0001D6
:100D5800606F000E616F68C062F069C063F0000EDA
:100D6800656F0A0E646F8AEC07F0070E286E020E94
:100D7800D2EC06F0720E296E000E2A6EE6EC05F033
:100D8800150E00016B6F4B0E6A6FBE0EE82EFED774
:100D98006A2FFCD76B2FFAD700F01200296E2904AE
:100DA800D8A410D028507F0F2C6E2C380F0B2A6E29
:100DB8002C500F0B2B6E2A5064EC08F02B5064EC6F
:100DC80008F01200020E2918D8A412002850BF0FEC
:100DD8002C6E2C380F0B2A6E2C500F0B2B6E2A50B2
:100DE80064EC08F02B5064EC08F01200056E050462
:100DF800D8A410D004507F0F086E08380F0B066E69
:100E080008500F0B076E065074EC08F0075074EC8E
:100E180008F01200020E0518D8A412000450BF0FE3
:100E2800086E08380F0B066E08500F0B076E065039
:100E380074EC08F0075074EC08F01200720E116E92
:100E4800000E126E19C013F01AC014F0000E166EC0
:100E58000A0E156EA8EC07F0070E046E020EFAECE7
:100E680006F0720E056E000E066E1FEC06F0150EEB
:100E78001C6E4B0E1B6EBE0EE82EFED71B2EFCD72B
:100E88001C2EFAD700D0120027502810D8B418D03A
:100E9800010E296E04D0D89027362836292A28AE84
:100EA800FAD72750255C28502658D8A004D02750B8
:100EB800255E2850265AD89028322732292EF1D775
:100EC80025C025F026C026F0120003500410D8B41F
:100ED80018D0010E056E04D0D89003360436052AC2
:100EE80004AEFAD70350015C04500258D8A004D0CD
:100EF8000350015E0450025AD89004320332052E82
:100F0800F1D701C001F002C002F01200000163AF86
:100F18000CD060C0D9FF61C0DAFF2D0EDF6E604BC8
:100F2800612B626D631FD8B0632B60C02CF061C069
:100F38002DF062C02EF063C02FF064C030F065C0A1
:100F480031F008EC05F0120014AE0CD011C0D9FF36
:100F580012C0DAFF2D0EDF6E114A122A136C141E0E
:100F6800D8B0142A11C008F012C009F013C00AF052
:100F780014C00BF015C00CF016C00DF05AEC05F0BB
:100F88001200286E28500F0B266E2850F00B276E83
:100F9800838427380F0BFDEC07F08386350EE82E87
:100FA800FED700F083962650FDEC07F08386350EB9
:100FB800E82EFED700F083961200046E04500F0B43
:100FC800026E0450F00B036E838403380F0B29EC78
:100FD80008F08386350EE82EFED700F0839602507F
:100FE80029EC08F08386350EE82EFED700F08396AC
:100FF8001200256E25A002D0838801D0839825A2EF
:1010080002D0838A01D0839A25A402D0838C01D090
:10101800839C25A602D0838E1200839E1200000EA8
:10102800926E000E896E000E386E000E376E000E3E
:101038003A6E000E396E000E366E000E356E000EDA
:1010480000016F6F000E6E6F1200016E01A002D0DA
:10105800838801D0839801A202D0838A01D0839A21
:1010680001A402D0838C01D0839C01A602D0838E78
:101078001200839E120000EE6EF0070EEE6AE8067C
:10108800FDE13A6A396A386A376A366A356A3B90E6
:101098003B92000EF86E000124EF04F0F29ED59A00
:1010A800D596D550F80B0209D56ED59CEC0ED76EA7
:1010B800770ED66ED58EF28AF294F28CF28E1200EA
:1010C800276E83942750FDEC07F08386150E266E55
:1010D800C60EE82EFED7262EFCD700D08396120027
:1010E800036E8394035029EC08F08386150E026E74
:1010F800C60EE82EFED7022EFCD700D0839612002B
:101108000F0EC11293688A68F28EF19EF18AF086FA
:10111800F0901200000E64EC08F0010E64EC08F088
:021128001200B3
:020000040020DA
:08000000FFFFFFFFFFFFFFFF00
:020000040030CA
:0E000000000C1F1FFF8381FF0FC00FE00F4099
:00000001FF
