:020000040000FA
:0400000040EF00F0DD
:100018000680D8CF01F0E8CF02F0E0CF03F09EA031
:1000280023D09E900B0ECE6E05BE1CD0055004E169
:10003800140E045CD8A016D005BE06D0055012E1F7
:10004800330E045CD8B00ED0000E806E05BE0AD008
:10005800055004E1310E045CD8A004D0000E056EF2
:10006800000E046E044A052A03C0E0FF02C0E8FF40
:1000780001C0D8FF0690100066EF00F05CEC00F0BD
:1000880051EC00F005BE06D00550FCE1150E045CED
:10009800D8B0F8D7010E806EF5D7F28ECD8E300E1F
:1000A800CD129D809E90F28CCD800B0ECE6E1200EC
:1000B8000F0EC1120F0E936E000E926E8A80000E04
:1000C800896E1200056A046A06900692000142EFE2
:0200D80000F036
:020000040020DA
:08000000FFFFFFFFFFFFFFFF00
:020000040030CA
:0E000000000C1F1FFF8385FF0FC00FE00F4095
:00000001FF
