:020000040000FA
:0400000007EF00F016
:0A0008004E8285ED07F013EF0AF0B9
:100800000073656C65637420312C2032206F722078
:1008100033206F722034002064656C617934006489
:10082000656C6179310064656C6179320064656C76
:050830006179330000B6
:100836002C50800B356E2C502C24376E2BBE3780F7
:100846003750D8B40DD03728D8A408D0000E296E5A
:10085600000E2A6E000E2B6E000E2C6E2B8E06D00E
:10086600000E296E000E2A6E000E2B6E000E2C6EE8
:100876003050800B366E35503618D8A4358C305033
:100886003024366E2FBE36803650D8B40DD036287A
:10089600D8A408D0000E2D6E000E2E6E000E2F6E00
:1008A600000E306E2F8E06D0000E2D6E000E2E6EB0
:1008B600000E2F6E000E306E3750365CD8B022D048
:1008C60035AC02D0800E351A37C038F036C037F056
:1008D60038C036F029C038F02DC029F038C02DF0C8
:1008E6002AC038F02EC02AF038C02EF02BC038F0BF
:1008F6002FC02BF038C02FF02CC038F030C02CF0B1
:1009060038C030F0000E386E375036C031F0326ADB
:10091600315E000E325A32BE2CD0325004E11A0E2D
:10092600315CD8A026D029502A102B102C10D8B410
:1009360002D0010E01D0000E386E000E296E000E98
:100946002A6E000E2B6E000E2C6E36C037F015D0B8
:1009560038A005D0D89038300109386E02D0D8902A
:10096600383229B0388E2C342C322B322A322932A6
:10097600372A3650375CD8A0EBD735BC28D037504D
:10098600D8A409D0000E296E000E2A6E000E2B6E1A
:10099600000E2C6E12002D5029262E502A222F5082
:1009A6002B2230502C222CA071D038A005D0D89004
:1009B60038300109386E02D0D890383229B0388ED6
:1009C6002C342C322B322A322932372A5FD02D5042
:1009D600295C2E502A582F502B582C50800A316EE5
:1009E6003050800A3158D8B025D029502D5C316E50
:1009F6002A502E58326E2B502F58336E2C503058AA
:100A0600346EFF0E3124296EFF0E32202A6EFF0E41
:100A160033202B6EFF0E34202C6E800E351A386C68
:100A26003850D8A40FD0010E2926000E2A222B22D8
:100A36002C2208D02D50295E2E502A5A2F502B5A80
:100A460030502C5A29502A102B102C10D8A41CD008
:100A56003850D8A419D0000E296E000E2A6E000E4A
:100A66002B6E000E2C6E1200D89029362A362B36A5
:100A76002C3638BE298038A002D0D88001D0D89034
:100A860038363750D8A437062BAEEED7000E366E62
:100A960038AE0BD038C031F07F0E3116D8B403D043
:100AA600010E366E02D029B0FBD73650D8B420D00E
:100AB600010E2926000E2A222B222C222CA018D029
:100AC60029C031F02AC032F02BC033F02CC034F0EC
:100AD6003434343233323232313231C029F032C01A
:100AE6002AF033C02BF034C02CF03728D8A4372A8C
:100AF6003728D8B403D03750D8A40DD0000E296EAD
:100B0600000E2A6E000E2B6E000E2C6E3750D8A4E7
:100B160002D0000E356E37A002D02B8E01D02B9E50
:100B2600D89037302C6E35BE2C8E29C029F02AC0BD
:100B36002AF02BC02BF02CC02CF012001350800B87
:100B4600206E13501324276E12BE27802750D8B468
:100B56000DD02728D8A408D0000E106E000E116EF6
:100B6600000E126E000E136E128E06D0000E106E60
:100B7600000E116E000E126E000E136E1750800BD3
:100B8600201A17501724286E16BE28802850D8B46D
:100B96000DD02828D8A408D0000E146E000E156EAD
:100BA600000E166E000E176E168E06D0000E146E10
:100BB600000E156E000E166E000E176E14501510F0
:100BC60016101710D8A417D0000E106E000E116E56
:100BD600000E126E000E136E800E12127F0E13128E
:100BE6002050131210C010F011C011F012C012F0F4
:100BF60013C013F012002750D8A409D0000E106EAF
:100C0600000E116E000E126E000E136E12002850AA
:100C160027C018F0196A185E000E195A7F0E18249C
:100C2600216E000E1920226E10C01CF011C01DF09E
:100C360012C01EF013C01FF0000E106E000E116ED3
:100C4600000E126E000E136E000E236E000E246E42
:100C5600000E256E000E266E000E286E28D0285037
:100C6600D8B411D0D8901C361D361E361F36D890F3
:100C7600103611361236133626BE1080D89023361B
:100C860024362536263614501C5C15501D58165031
:100C96001E5817501F58D8A009D0268C14501C5E19
:100CA60015501D5A16501E5A17501F5A282A190E2B
:100CB6002864D5D71C501D101E101F10D8B411D093
:100CC60023800FD0D890103611361236133626BE32
:100CD6001080D89023362436253626362106D8A00D
:100CE600220612AEEFD7000E286E26AE17D0FF0EE4
:100CF6002314186EFF0E2414196EFF0E25141A6E97
:100D06007F0E26141B6E185019101A101B10D8B41B
:100D160003D0010E286E02D010B0FBD72850D8B4ED
:100D26001FD0010E1026000E11221222132213A02C
:100D360017D010C018F011C019F012C01AF013C065
:100D46001BF01B341B321A321932183218C010F03D
:100D560019C011F01AC012F01BC013F0214A222A42
:100D660022BE10D0225003E12128D8A00BD0000EBD
:100D7600226E2168000E106E000E116E000E126EAD
:100D8600000E136E22BE05D0225011E12104D8B008
:100D96000ED0000E226E000E216E000E106E000E9A
:100DA600116E000E126E000E136E000E206E21C024
:100DB60027F027A002D0128E01D0129ED89027309D
:100DC600136E0ED70A6E0A50D8A405AE1AD002C00A
:100DD60006F003C007F004C008F005C009F0061EBF
:100DE600071E081E091E062A000E072208220922CF
:100DF60006C00CF007C00DF008C00EF009C00FF0D9
:100E060008D002C00CF003C00DF004C00EF005C0FF
:100E16000FF00250031004100510D8A409D0000EDC
:100E2600026E000E036E000E046E000E056E1200BA
:100E3600960E0B6E06D00B2AD8900F320E320D325C
:100E46000C32000E0C14066E000E0D14076E000E0A
:100E56000E14086EFE0E0F14096E065007100810C9
:100E66000910D8B40DD0E7D70B2A010E0C26000EB8
:100E76000D220E220F22D8900F320E320D320C3276
:100E8600000E0C14066E000E0D14076E000E0E14E6
:100E9600086EFF0E0F14096E065007100810091091
:100EA600D8B407D0E1D70B06D8900C360D360E36DF
:100EB6000F360EBE03D0020E0B60F5D70BA00E9EAA
:100EC600D8900B320BC006F0076A086A096A06C09A
:100ED60009F0086A076A066A06500C1207500D12D6
:100EE60008500E1209500F120A50D8A405AE01D0B0
:100EF6000F8E0CC002F00DC003F00EC004F00FC040
:100F060005F012000600F0B6F0A063D0474A482A62
:100F1600F09045044610D8A412D08390100E016EAE
:100F2600940EE82EFED7012EFCD700D08380060E45
:100F3600016E300EE82EFED7012EFCD716D0020E1B
:100F460045184610D8A413D083900B0E016E620E7E
:100F5600E82EFED7012EFCD700D083800B0E016E43
:100F6600620EE82EFED7012EFCD700D032D0030E3B
:100F760045184610D8A411D08390080E016ECA0EEB
:100F8600E82EFED7012EFCD783800D0E016EFC0ED7
:100F9600E82EFED7012EFCD71CD0040E45184610AD
:100FA600D8A412D08390030E016E980EE82EFED7B9
:100FB600012EFCD78380130E016E2D0EE82EFED770
:100FC600012EFCD700F005D0050E45184610D8B402
:100FD6008390F2BAF2A413D044BE0AD0445004E17E
:100FE600060E435CD8A004D0000E446E000E436E7D
:100FF600434A442AF294FF0ED76E070ED66EF2903D
:101006004E921100720ED36E000E956E000E836E18
:10101600800E396E250E3A6E000E3B6E000E3C6E4B
:1010260024EC09F0820E416EDE0EE82EFED7412E2C
:10103600FCD720EC0AF02FEC0AF0426E310E421873
:10104600D8A40AD01F0E036E080E046E97EC09F0A2
:10105600000E466E010E3DD0320E4218D8A410D0B6
:10106600260E036E080E046E97EC09F047C01AF0C0
:1010760048C01BF0FEEC09F0000E466E020E29D0A9
:10108600330E4218D8A40AD02D0E036E080E046E35
:1010960097EC09F0000E466E030E1BD0340E421874
:1010A600D8A40AD0170E036E080E046E97EC09F04A
:1010B600000E466E040E0DD0350E4218D8A40BD085
:1010C600170E036E080E046E97EC09F0000E466EBE
:1010D600050E456EB0D7010E036E080E046E97EC32
:1010E60009F0A9D7043405340B6E0B50D8A409D0E7
:1010F600000E026E000E036E000E046E000E056EEC
:10110600120002C006F003C007F004C008F005C0D4
:1011160009F0200E05D0D89009320832073206327F
:10112600E82EF9D706500A6E048EFF0E0216FF0E41
:101136000316FF0E0416000E0516960E0B5E0BAE7A
:101146000DD00B50800A970FD8A0D2D7D890053271
:101156000432033202320B3EF9D70DD01F0E0B6458
:1011660007D0C6D7D89002360336043605360B06A6
:101176000B50D8A4F7D70A50D8B408D0051E041EC1
:10118600031E026C000E03220422052202C002F096
:1011960003C003F004C004F005C005F012000BC044
:1011A6000FF00CC010F00FC002F010C003F00DC01D
:1011B60004F00EC005F06EEC09F002C00FF003C09B
:1011C60010F0094A0A2A0F501010D8A4ECD709C00B
:1011D600D9FF0AC0DAFF000EDF6E0906D8A00A069C
:1011E6000BC002F00CC003F00DC004F00EC005F0F9
:1011F600C0EC09F00250116E0BC002F00CC003F0F7
:101206000DC004F00EC005F06EEC09F002C00BF044
:1012160003C00CF0090E116402D0070E1126300E21
:10122600112609C0D9FF0AC0DAFF11C0DFFF09067F
:10123600D8A00A060B500C10D8A4D2D7094A0A2AFD
:101246001200949C948E39C002F03AC003F03BC061
:1012560004F03CC005F0010EE5EC06F002C014F007
:1012660003C015F004C016F005C017F0000E106E8E
:10127600240E116EF40E126E470E136EA1EC05F0DD
:1012860010C029F011C02AF012C02BF013C02CF0A8
:10129600000E2D6E000E2E6E800E2F6EBF0E306E5F
:1012A6001BEC04F029C03DF02AC03EF02BC03FF0F5
:1012B6002CC040F03DC002F03EC003F03FC004F039
:1012C60040C005F075EC08F00250AF6E200EAC6E13
:1012D600900EAB6E1200000E076E000E066E0450E6
:1012E6000510D8B41CD0010E086E04D0D890043670
:1012F6000536082A05AEFAD7D890063607360450C2
:10130600025C05500358D8A005D00450025E055073
:10131600035A0680D89005320432082EEDD706C04F
:1013260002F007C003F0120014D003C0F6FF04C099
:10133600F7FFF86A070EF76403D00800F55005D0EA
:10134600F6CFD9FFF7CFDAFFDF5029EC0AF0034AD0
:10135600042A03C0F6FF04C0F7FFF86A070EF76415
:1013660003D00800F55005D0F6CFD9FFF7CFDAFF46
:10137600DF500009D8B41200D8D704500510D8B4ED
:1013860018D0010E066E04D0D89004360536062A0B
:1013960005AEFAD70450025C05500358D8A004D015
:1013A6000450025E0550035AD89005320432062EC8
:1013B600F1D702C002F003C003F0120015AE0CD044
:1013C60012C0D9FF13C0DAFF2D0EDF6E124A132AA0
:1013D600146C151ED8B0152A12C009F013C00AF0F5
:1013E60014C00BF015C00CF016C00DF017C00EF0AF
:1013F600D2EC08F012004B0E126E000E136E1AC0DD
:1014060014F01BC015F0000E176E0A0E166EE1ECF6
:1014160009F04B0E036E000E046E97EC09F01200F5
:1014260000EE43F00B0EEE6AE806FDE14E904E929A
:10143600000EF86E000105EF08F00F0EC11293685A
:10144600F28EF19EF18AF086F0901200026E9EA84E
:10145600FED702C0ADFF12009EAAFED7AE50120004
:020000040020DA
:08000000FFFFFFFFFFFFFFFF00
:020000040030CA
:0E00000000091F1EFF8381FF0FC00FE00F409D
:00000001FF
