:020000040000FA
:040000003BEF17F0CB
:10080000002A2A2A2A2A2A2A2A4144432A2A2A2A28
:100810002A2A2A2A0042793A205377697463686544
:100820007200454C2056616C6F7220455300252E96
:10083000336600494E46004E414E00696E66006EBA
:07084000616E006C66000010
:10084800000E0001806F000E7F6F57C091F058C0F6
:1008580092F059C093F05AC094F094AF16D0000E9D
:10086800806F010E7F6F91C001F092C002F093C0BB
:1008780003F094C004F0D3EC16F001C091F002C06C
:1008880092F003C093F004C094F0000E0001986F3A
:10089800000E976FD9C084F0DAC085F07F518011BF
:1008A800D8A402D0DDA513D07F518011D8A404D0DC
:1008B800000E6A6F2B0E03D0000E6A6F2D0E696F43
:1008C80069C000F1974B982B8407D8A0850791C081
:1008D80001F092C002F093C003F094C004F062ECFF
:1008E80012F001040210D8A44CD0BF0E0001606FB2
:1008F800FF0E616F5B50626F636B605162276151DD
:100908006323635106E11A0E625DD8B002D0010E6E
:1009180001D0000E6B6F6C6B6B516C11D8B40DD09D
:10092800000E9725016E010E9821026E330E036E9C
:10093800080E046E99EC15F00CD0000E9725016E88
:10094800010E9821026E3B0E036E080E046E99ECA0
:1009580015F00001FD0E8427FF0E852355C011F008
:1009680056C012F0000E136E010E146E84C015F0FE
:1009780085C016F0C6EC13F011C055F012C056F041
:10098800120091C001F092C002F093C003F094C02D
:1009980004F062EC12F001500210D8A435D0BF0E5A
:1009A8000001606FFF0E616F5B50626F636B605197
:1009B800622761516323635106E11A0E625DD8B064
:1009C80002D0010E01D0000E6D6F6E6B6D516E116D
:1009D800D8B40DD0000E9725016E010E9821026E35
:1009E800370E036E080E046E99EC15F0B2D7000EA0
:1009F8009725016E010E9821026E3F0E036E080EB8
:100A0800046E99EC15F0A5D7000E0001996F000E41
:100A18009A6F800E9B6F3F0E9C6F000E966F000EB4
:100A2800956F91C001F092C002F093C003F094C09A
:100A380004F0000E056E000E066E000E076E000E26
:100A4800086E13EC14F0D8A01ED076D099C00FF021
:100A58009AC010F09BC011F09CC012F0000E136EEB
:100A6800000E146E200E156E410E166EBBEC0AF0C9
:100A78000FC099F010C09AF011C09BF012C09CF002
:100A88000001954B962B91C028F092C029F093C095
:100A98002AF094C02BF0000E136E000E146E200E78
:100AA800156E410E166E99C00FF09AC010F09BC0DB
:100AB80011F09CC012F0BBEC0AF00FC02CF010C073
:100AC8002DF011C02EF012C02FF0FAEC11F0D8A0C2
:100AD8001FD0BCD799C028F09AC029F09BC02AF033
:100AE8009CC02BF0000E2C6E000E2D6E200E2E6E6C
:100AF800410E2F6EEAEC0DF028C099F029C09AF04B
:100B08002AC09BF02BC09CF000019507D8A096073F
:100B180091C028F092C029F093C02AF094C02BF01D
:100B280099C02CF09AC02DF09BC02EF09CC02FF0DD
:100B3800FAEC11F0D8A0CED75BC007F0086AEAEC4F
:100B480015F007500001866F86C083F0670E86197E
:100B5800D8A419D0DB51DC11D8A404D0000EDC6F66
:100B6800010EDB6FDCBF05D0DC5108E1DB05D8B036
:100B780005D0000E826F060E816F08D0DBC081F0B1
:100B8800DCC082F003D0DCAFF9D7F3D7670E861943
:100B9800D8A422D096AF06D0FC0E955DFF0E9659CC
:100BA800D8A018D0FF0E606FFF0E616F81C062F091
:100BB80082C063F060516227615163239551625D81
:100BC8006351800A646F9651800A6459D8A002D094
:100BD800660E01D0650E836F81C079F082C07AF00D
:100BE800670E8619D8A405D0660E8319D8B496AFB7
:100BF80002D0794B7A2B660E8319D8A416D096AFFB
:100C08000CD0000E996F000E9A6F800E9B6F3F0EEE
:100C18009C6F000E966F000E956F670E8619D8B4FC
:100C280004D09551792796517A23000E906F000EC3
:100C38008F6F91C087F092C088F093C089F094C0FC
:100C48008AF099C065F09AC066F09BC067F09CC0B6
:100C580068F07BD087C028F088C029F089C02AF0C6
:100C68008AC02BF099C02CF09AC02DF09BC02EF0B2
:100C78009CC02FF0EAEC0DF028C041F029C042F0EA
:100C88002AC043F02BC044F02EEC0FF041C08BF08B
:100C980042C08CF043C08DF044C08EF08BC001F090
:100CA8008CC002F08DC003F08EC004F0C8EC12F0C6
:100CB80001C07DF002C07EF087C028F088C029F00E
:100CC80089C02AF08AC02BF099C013F09AC014F09A
:100CD8009BC015F09CC016F08BC00FF08CC010F0B4
:100CE8008DC011F08EC012F0BBEC0AF00FC02CF0D2
:100CF80010C02DF011C02EF012C02FF010EC16F01D
:100D080028C087F029C088F02AC089F02BC08AF053
:100D180099C028F09AC029F09BC02AF09CC02BF0FB
:100D2800000E2C6E000E2D6E200E2E6E410E2F6EB4
:100D3800EAEC0DF028C099F029C09AF02AC09BF07F
:100D48002BC09CF000018F4B902B79518F5D9051F7
:100D5800800A606F7A51800A6059D8A07BD799C001
:100D68000FF09AC010F09BC011F09CC012F0000E5A
:100D7800136E000E146EA00E156E400E166EBBECB0
:100D88000AF00FC08BF010C08CF011C08DF012C0AB
:100D98008EF087C028F088C029F089C02AF08AC060
:100DA8002BF08BC02CF08CC02DF08DC02EF08EC097
:100DB8002FF0FAEC11F0D8B003D0000E000118D0D3
:100DC80087C001F088C002F089C003F08AC004F02F
:100DD8008BC005F08CC006F08DC007F08EC008F0FF
:100DE80013EC14F0D8A00BD000017DB108D0000E90
:100DF8008B6F000E8C6F000E8D6F000E8E6F91C082
:100E080001F092C002F093C003F094C004F08BC0CC
:100E180005F08CC006F08DC007F08EC008F064ECB9
:100E28000CF001C087F002C088F003C089F004C04C
:100E38008AF065C099F066C09AF067C09BF068C0F8
:100E48009CF0650E00018319D8B405D095C07BF0DD
:100E580096C07CF004D0000E7C6F000E7B6F000EF5
:100E6800786F000E776F000E766F000E756F000EAC
:100E7800906F000E8F6FC6D087C028F088C029F009
:100E880089C02AF08AC02BF099C02CF09AC02DF0A6
:100E98009BC02EF09CC02FF0EAEC0DF028C041F06A
:100EA80029C042F02AC043F02BC044F02EEC0FF0CA
:100EB80041C08BF042C08CF043C08DF044C08EF02E
:100EC8008BC001F08CC002F08DC003F08EC004F01E
:100ED800C8EC12F001C07DF002C07EF00001DDB95F
:100EE8000CD07D517E11D8A408D0670E8619D8B4CD
:100EF8007CAF03D0754B762B39D077517811D8B4A5
:100F08007CAF22D0000E9725D96E010E9821DA6E9B
:100F18002E0EDF6E974B982B8407D8A08507000EFE
:100F2800786F010E776F10D0000E9725D96E010EDD
:100F38009821DA6E300EDF6E974B982B8407D8A075
:100F480085077507D8A0760775517611D8A4ECD710
:100F5800000E9725D96E010E9821DA6E7D51300F5B
:100F6800DF6E974B982B8407D8A0850787C028F099
:100F780088C029F089C02AF08AC02BF099C013F0E4
:100F88009AC014F09BC015F09CC016F08BC00FF0EF
:100F98008CC010F08DC011F08EC012F0BBEC0AF0BE
:100FA8000FC02CF010C02DF011C02EF012C02FF081
:100FB80010EC16F028C087F029C088F02AC089F004
:100FC8002BC08AF099C028F09AC029F09BC02AF05B
:100FD8009CC02BF0000E2C6E000E2D6E200E2E6E77
:100FE800410E2F6EEAEC0DF028C099F029C09AF056
:100FF8002AC09BF02BC09CF000017B07D8A07C077F
:101008008F4B902B79518F5D9051800A606F7A5188
:10101800800A6059D8B008D098BF2ED7985104E1FB
:101028004B0E975DD8A028D777517811D8B4DDA991
:101038000AD0000E9725D96E010E9821DA6E2E0E71
:10104800DF6E974B982B000E9725D96E010E9821CD
:10105800DA6E000EDF6E650E8319D8A47FD4000EF9
:10106800906F4F0E8F6F000E8F25D96E010E902155
:10107800DA6E000EDF6E000E806F000E7F6F96AF87
:1010880008D0000E806F010E7F6F956D961FD8B047
:10109800962B000E826F020E816F2BD08F07D8A07F
:1010A8009007000E8F25D96E010E9021DA6E95C03B
:1010B80001F096C002F0000E046E0A0E036E0DECED
:1010C80015F00150300FDF6E95C001F096C002F0A8
:1010D800000E046E0A0E036E58EC14F001C095F071
:1010E80002C096F000018107D8A082078407D8A023
:1010F800850795519611D8A4D1D782BF05D08251C2
:10110800CDE18105D8B0CAD78F07D8A090077F5105
:101118008011D8A404D0000E706F2B0E03D0000EDF
:10112800706F2D0E6F6F000E8F25D96E010E9021F6
:10113800DA6E6FC0DFFF8407D8A085078F07D8A0B5
:101148009007BF0E606FFF0E616F5B50626F636B3D
:101158006051622761516323635106E11A0E625D93
:10116800D8B002D0010E01D0000E736F746B7351AA
:101178007411D8A404D0000E726F650E03D0000E4F
:10118800726F450E716F000E8F25D96E010E90217A
:10119800DA6E71C0DFFF8407D8A08507000E972597
:1011A800016E010E9821026E000E8F25036E010E4E
:1011B8009021046E99EC15F0B2EF04F09FC0D9FFAE
:1011C800A0C0DAFFDECFF6FFDDCFF7FF0800F5504D
:1011D800250AD8A4B2D19FC0D9FFA0C0DAFFDE2A61
:1011E800000EDD22000E0001DA6F000ED96FD9C0A3
:1011F800DDF0DAC0DEF0DB69DC699FC0D9FFA0C092
:10120800DAFFDECFF6FFDDCFF7FF0800F5502E0A34
:10121800D8A46ED0000EDC6F000EDB6F9FC0D9FF24
:10122800A0C0DAFFDE2A000EDD229FC0D9FFA0C0D1
:10123800DAFFDECFF6FFDDCFF7FF0800F5502A0A08
:10124800D8A41CD09FC0D9FFA0C0DAFFDE2A000EA8
:10125800DD22A1C0D9FFA2C0DAFFDFCF5CF0020E09
:10126800DE26DFCF5DF0000EDD225CC0D9FF5DC059
:10127800DAFFDECFDBF0DDCFDCF03AD09FC0D9FF5C
:10128800A0C0DAFFDECF08F0DDCF09F0BAEC10F02D
:1012980008C0DBF009C0DCF007D09FC0D9FFA0C0B0
:1012A800DAFFDE2A000EDD22D00E5C6EFF0E5D6EC8
:1012B8009FC0D9FFA0C0DAFFDECFF6FFDDCFF7FF72
:1012C8000800F5505E6E5F6A5C505E265D505F22D6
:1012D8005F5006E10A0E5E5CD8B002D0010E01D064
:1012E800000E0001A36FA46BA351A411D8A4D5D7F5
:1012F8009FC0D9FFA0C0DAFFDECFF6FFDDCFF7FF32
:101308000800F550076E086AEAEC15F0075000016E
:10131800AB6FAB51D8B435D09FC0D9FFA0C0DAFFAE
:10132800DECF5CF0DDCF5DF0010E5C26000E5D22A5
:101338005CC0F6FF5DC0F7FF0800F550076E086A4D
:10134800EAEC15F007500001AC6FAC51D8B419D0D5
:101358009FC0D9FFA0C0DAFFDECF5CF0DDCF5DF023
:10136800020E5C26000E5D225CC0F6FF5DC0F7FF32
:101378000800F550076E086AEAEC15F007500001FE
:10138800AD6F660EAB19D8A43FD09FC0D9FFA0C0DF
:10139800DAFFDECFF6FFDDCFF7FF0800F5CFAEF0BE
:1013A8009FC0D9FFA0C0DAFFDE2A000EDD22A1C04F
:1013B800D9FFA2C0DAFFDFCF5CF0040EDE26DFCF54
:1013C8005DF0000EDD225CC0D9FF5DC0DAFFDECF24
:1013D800A7F0DECFA8F0DECFA9F0DECFAAF09DC03F
:1013E80055F09EC056F0A7C057F0A8C058F0A9C045
:1013F80059F0AAC05AF0AEC05BF024EC04F055C016
:101408009DF056C09EF01200AB0E016E000E026EEB
:10141800430E036E080E046E000E066E020E056E75
:1014280025EC13F001500210D8A456D09FC0D9FF64
:10143800A0C0DAFFDECF5CF0DDCF5DF0010E5C26E8
:10144800000E5D225CC0F6FF5DC0F7FF0800F5CF17
:10145800AEF0BF0E5C6EFF0E5D6E9FC0D9FFA0C0E0
:10146800DAFFDECFF6FFDDCFF7FF0800F5505E6E3E
:101478005F6A5C505E265D505F225F5006E11A0E7F
:101488005E5CD8B002D0010E01D0000E0001A56F3D
:10149800A66BA551A611A1C0D9FFA2C0DAFFDFCF64
:1014A8005CF0040EDE26DFCF5DF0000EDD225CC0AE
:1014B800D9FF5DC0DAFFDECFA7F0DECFA8F0DECF20
:1014C800A9F0DECFAAF0020E9FC0D9FFA0C0DAFFB4
:1014D800DE26000EDD2283D79FC0D9FFA0C0DAFF29
:1014E800DECFF6FFDDCFF7FF0800F550250AD8A4B8
:1014F80017D09FC0D9FFA0C0DAFFDE2A000EDD2278
:10150800000E026E250E016E9DC003F09EC004F011
:1015180076EC13F0000E00019E6F010E9D6F120015
:101528009FC0D9FFA0C0DAFFDE2A000EDD22000E20
:1015380000019E6F000E9D6F12009FC0D9FFA0C0D2
:10154800DAFFDECFF6FFDDCFF7FF0800F550016EBA
:10155800026A9DC003F09EC004F076EC13F09FC0B1
:10156800D9FFA0C0DAFFDE2A000EDD22D3D7125041
:10157800800B1B6E12501224216E11BE2180215047
:10158800D8B40DD02128D8A408D0000E0F6E000EB4
:10159800106E000E116E000E126E118E08D0000E25
:1015A8000F6E000E106E000E116E000E126E1650A9
:1015B800800B1B1A16501624206E15BE2080205052
:1015C800D8B40DD02028D8A408D0000E136E000E71
:1015D800146E000E156E000E166E158E08D0000ED5
:1015E800136E000E146E000E156E000E166E20504F
:1015F800D8B403D02150D8A409D0000E0F6E000E25
:10160800106E000E116E000E126E120015500F02B1
:10161800F3CF26F0F4CF27F026501C6E1D6A1E6A01
:101628001F6A2750226E236A246A256A1450100202
:10163800F3CF26F0F4CF27F026501C26000E1D22EB
:101648001E221F2227502226000E23222422252272
:1016580013501102F3CF26F0F4CF27F026501C26A2
:10166800000E1D221E221F2227502226000E232292
:10167800242225221EC01FF01DC01EF01CC01DF014
:101688001C6A13501002F3CF26F0F4CF27F026502F
:101698001C2627501D22000E1E22000E1F22145049
:1016A8000F02F3CF26F0F4CF27F026501C26275040
:1016B8001D22000E1E22000E1F221EC01FF01DC07C
:1016C8001EF01CC01DF01C6A13500F02F3CF26F049
:1016D800F4CF27F026501C2627501D22000E1E226C
:1016E800000E1F2215501002F3CF26F0F4CF27F07A
:1016F8002650222627502322000E2422000E2522BF
:1017080014501102F3CF26F0F4CF27F026502226EA
:1017180027502322000E2422000E252215501102E4
:10172800F3CF26F0F4CF27F02650176E2750186E07
:10173800196A1A6A19C01AF018C019F017C018F0F7
:10174800176A1750222618502322195024221A509B
:1017580025221CC017F01DC018F01EC019F01FC0AC
:101768001AF0190E05D0D8901A32193218321732D9
:10177800E82EF9D717502226185023221950242270
:101788001A5025221EC01FF01DC01EF01CC01DF0DF
:101798001C6A205021C017F0186A1726000E18225C
:1017A800820E1724266EFF0E1820276E0FD0D890B1
:1017B80022362336243625361FBE2280D8901C3682
:1017C8001D361E361F362606D8A0270624AEEFD7AC
:1017D800000E206E1FAE17D0FF0E1C14176EFF0EE2
:1017E8001D14186EFF0E1E14196E7F0E1F141A6E2C
:1017F8001750181019101A10D8B403D0010E206E03
:1018080002D022B0FBD72050D8B41FD0010E222618
:10181800000E23222422252225A017D022C017F04B
:1018280023C018F024C019F025C01AF01A341A324F
:1018380019321832173217C022F018C023F019C015
:1018480024F01AC025F0264A272A27BE0DD0275093
:1018580003E12628D8A008D0000E226E000E236EC1
:10186800800E246E7F0E20D027BE05D027500EE1B3
:101878002604D8B00BD0000E226E000E236E000E88
:10188800246E000E256E000E1B6E0FD026C021F0B0
:10189800FF0E2216FF0E23167F0E2416000E2516A5
:1018A80021B0248ED8902130256E1B50251222C0DD
:1018B8000FF023C010F024C011F025C012F0120060
:1018C8000450800B0D6E045004240F6E03BE0F806D
:1018D8000F50D8B40DD00F28D8A408D0000E016E30
:1018E800000E026E000E036E000E046E038E06D00C
:1018F800000E016E000E026E000E036E000E046EE6
:101908000850800B0E6E0D500E18D8A40D8C085080
:1019180008240E6E07BE0E800E50D8B40DD00E28C7
:10192800D8A408D0000E056E000E066E000E076ED5
:10193800000E086E078E06D0000E056E000E066EAD
:10194800000E076E000E086E0F500E5CD8B022D045
:101958000DAC02D0800E0D1A0FC010F00EC00FF0A3
:1019680010C00EF001C010F005C001F010C005F065
:1019780002C010F006C002F010C006F003C010F05C
:1019880007C003F010C007F004C010F008C004F04E
:1019980010C008F0000E106E0F500EC009F00A6A51
:1019A800095E000E0A5A0ABE2CD00A5004E11A0E2B
:1019B800095CD8A026D00150021003100410D8B436
:1019C80002D0010E01D0000E106E000E016E000E46
:1019D800026E000E036E000E046E0EC00FF015D0DE
:1019E80010A005D0D89010300109106E02D0D89000
:1019F800103201B0108E0434043203320232013244
:101A08000F2A0E500F5CD8A0EBD70DBC28D00F5072
:101A1800D8A409D0000E016E000E026E000E036EEF
:101A2800000E046E120005500126065002220750CF
:101A380003220850042204A071D010A005D0D89029
:101A480010300109106E02D0D890103201B0108EFB
:101A5800043404320332023201320F2A5FD00550B7
:101A6800015C06500258075003580450800A096E5A
:101A78000850800A0958D8B025D00150055C096E75
:101A8800025006580A6E035007580B6E0450085847
:101A98000C6EFF0E0924016EFF0E0A20026EFF0E67
:101AA8000B20036EFF0E0C20046E800E0D1A106CB6
:101AB8001050D8A40FD0010E0126000E02220322D6
:101AC800042208D00550015E0650025A0750035AF6
:101AD8000850045A0150021003100410D8A41CD056
:101AE8001050D8A419D0000E016E000E026E000E20
:101AF800036E000E046E1200D890013602360336CB
:101B0800043610BE018010A002D0D88001D0D89031
:101B180010360F50D8A40F0603AEEED7000E0E6E87
:101B280010AE0BD010C009F07F0E0916D8B403D040
:101B3800010E0E6E02D001B0FBD70E50D8B420D0E3
:101B4800010E0126000E02220322042204A018D04E
:101B580001C009F002C00AF003C00BF004C00CF089
:101B68000C340C320B320A32093209C001F00AC0B7
:101B780002F00BC003F00CC004F00F28D8A40F2A01
:101B88000F28D8B403D00F50D8A40DD0000E016E82
:101B9800000E026E000E036E000E046E0F50D8A4E5
:101BA80002D0000E0D6E0FA002D0038E01D0039E4E
:101BB800D8900F30046E0DBE048E01C001F002C033
:101BC80002F003C003F004C004F012002B50800B95
:101BD800386E2B502B243F6E2ABE3F803F50D8B41E
:101BE8000DD03F28D8A408D0000E286E000E296E0C
:101BF800000E2A6E000E2B6E2A8E06D0000E286E5E
:101C0800000E296E000E2A6E000E2B6E2F50800BD0
:101C1800381A2F502F24406E2EBE40804050D8B422
:101C28000DD04028D8A408D0000E2C6E000E2D6EC2
:101C3800000E2E6E000E2F6E2E8E06D0000E2C6E0D
:101C4800000E2D6E000E2E6E000E2F6E2C502D10D5
:101C58002E102F10D8A417D0000E286E000E296E53
:101C6800000E2A6E000E2B6E800E2A127F0E2B128B
:101C780038502B1228C028F029C029F02AC02AF091
:101C88002BC02BF012003F50D8A409D0000E286EAC
:101C9800000E296E000E2A6E000E2B6E12004050A8
:101CA8003FC030F0316A305E000E315A7F0E30246A
:101CB800396E000E31203A6E28C034F029C035F054
:101CC8002AC036F02BC037F0000E286E000E296EA1
:101CD800000E2A6E000E2B6E000E3B6E000E3C6E40
:101CE800000E3D6E000E3E6E000E406E28D0405035
:101CF800D8B411D0D8903436353636363736D890F1
:101D0800283629362A362B363EBE2880D8903B36D0
:101D18003C363D363E362C50345C2D5035582E50CE
:101D280036582F503758D8A009D03E8C2C50345EE6
:101D38002D50355A2E50365A2F50375A402A190EE0
:101D48004064D5D73450351036103710D8B411D078
:101D58003B800FD0D890283629362A362B363EBEFF
:101D68002880D8903B363C363D363E363906D8A0DA
:101D78003A062AAEEFD7000E406E3EAE17D0FF0EE1
:101D88003B14306EFF0E3C14316EFF0E3D14326E64
:101D98007F0E3E14336E3050311032103310D8B4E9
:101DA80003D0010E406E02D028B0FBD74050D8B403
:101DB8001FD0010E2826000E29222A222B222BA012
:101DC80017D028C030F029C031F02AC032F02BC01B
:101DD80033F03334333232323132303230C028F0DB
:101DE80031C029F032C02AF033C02BF0394A3A2AE0
:101DF8003ABE10D03A5003E13928D8A00BD0000ED3
:101E08003A6E3968000E286E000E296E000E2A6E92
:101E1800000E2B6E3ABE05D03A5011E13904D8B005
:101E28000ED0000E3A6E000E396E000E286E000EAF
:101E3800296E000E2A6E000E2B6E000E386E39C009
:101E48003FF03FA002D02A8E01D02A9ED8903F3082
:101E58002B6E0ED7CBC051F0CCC052F0CDC053F092
:101E6800CEC054F041C051F042C052F043C053F0CC
:101E780044C054F0810E456EFF0E466E51C047F0C7
:101E880052C048F053C049F054C04AF0180E05D06B
:101E9800D8904A32493248324732E82EF9D747506B
:101EA80045244F6E000E4620506E50BE0FD0505045
:101EB80004E1170E4F5CD8A009D041C041F042C0E0
:101EC80042F043C043F044C044F0120050BE5ED01C
:101ED8004FC045F0FF0E466EFF0E476E7F0E486EF0
:101EE800000E496E456601D007D049344932483260
:101EF80047324632452EF6D746C04BF047C04CF025
:101F080048C04DF049C04EF04B505114456E4C50EE
:101F18005214466E4D505314476E4E505414486E2A
:101F28004550461047104810D8B4C7D751C045F09F
:101F380052C046F053C047F054C048F0200E05D0B8
:101F4800D8904832473246324532E82EF9D74550C4
:101F5800461047104810D8B408D04B5051264C5062
:101F680052224D5053224E5054224B1C456E4C1C4D
:101F7800466E4D1C476E4E1C486E455051164650D5
:101F88005216475053164850541636D051C045F093
:101F980052C046F053C047F054C048F0200E05D058
:101FA800D8904832473246324532E82EF9D7455064
:101FB800461047104810D8A408D0000E516E000EE5
:101FC800526E000E536E000E16D0D8905134456EE6
:101FD8005234466E5334476E5434486E455046105A
:101FE80047104810D8B408D0000E516E000E526E3B
:101FF800800E536EBF0E546E51C041F052C042F075
:1020080053C043F054C044F01200030E956E92681A
:102018009AEC14F028EC17F05CEC17F0010E046E43
:10202800010EC2EC15F0010E056E080E066ED4EC1A
:1020380014F0010E046E020EC2EC15F0150E056EBA
:10204800080E066ED4EC14F0150E0001CA6F4B0E84
:10205800C96FBE0EE82EFED7C92FFCD7CA2FFAD7F4
:1020680000F05CEC17F0010E046E010EC2EC15F0E6
:10207800220E056E080E066ED4EC14F00B0E00014D
:10208800CA6F260EC96F5D0EE82EFED7C92FFCD782
:10209800CA2FFAD700D0000E8AEC16F001C0DFF084
:1020A80002C0E0F0000E136E000E146EA00E156E46
:1020B800400E166EDFC001F0E0C002F0000E02BE56
:1020C800FF0E036E046E010E5AEC11F001C00FF002
:1020D80002C010F003C011F004C012F0BBEC0AF00B
:1020E8000FC028F010C029F011C02AF012C02BF040
:1020F800000E2C6EC00E2D6E7F0E2E6E440E2F6EAF
:10210800EAEC0DF028C0D3F029C0D4F02AC0D5F0ED
:102118002BC0D6F0E10E0001B76F000EB86F2E0E7F
:10212800B96F080EBA6FD3C0BBF0D4C0BCF0D5C02D
:10213800BDF0D6C0BEF070EC15F0010E046E020EB4
:10214800C2EC15F0E10E056E000E066ED4EC14F02C
:102158000B0E0001CA6F260EC96F5D0EE82EFED762
:10216800C92FFCD7CA2FFAD700D07DD7000E166E1C
:10217800000E156E000E0F6E000E0E6E02D0084A8D
:10218800092A010E146E08C0F6FF09C0F7FF0800FF
:10219800F550200AD8B418D0F70E0A6EFF0E0B6E51
:1021A80008C0F6FF09C0F7FF0800F5500C6E0D6A6D
:1021B8000A500C260B500D220D5004E1050E0C5C44
:1021C800D8A002D0000E146E14C010F0116A10507E
:1021D8001110D8B408D0D3D7000E0F6E010E0E6EB2
:1021E800084A092A2ED008C0F6FF09C0F7FF0800E0
:1021F800F5500A6E0B6A0B50000AD8A422D00A5078
:102208002B0AD8B4EDD7060AD8B4E6D71AD015C029
:1022180001F016C002F0000E046E0A0E036E15ECF3
:1022280017F008C0F6FF09C0F7FF0800F550015E77
:10223800000E025A300E0124156E000E0220166E92
:10224800CFD7D00E0A6EFF0E0B6E08C0F6FF09C07E
:10225800F7FF0800F5500C6E0D6A0A500C260B505B
:102268000D220D5006E10A0E0C5CD8B002D0010E0A
:1022780001D0000E126E136A12501310D8A4C7D7DB
:102288000E500F10D8A40DD015C00AF016C00BF0D0
:102298000A1E0B1E0A4A0B2A0AC008F00BC009F0D6
:1022A800120015C008F016C009F01200096E095096
:1022B800D8A404AE1AD001C005F002C006F003C0CD
:1022C80007F004C008F0051E061E071E081E052A92
:1022D800000E06220722082205C00BF006C00CF0EB
:1022E80007C00DF008C00EF008D001C00BF002C006
:1022F8000CF003C00DF004C00EF0015002100310E2
:102308000410D8A409D0000E016E000E026E000E53
:10231800036E000E046E1200960E0A6E06D00A2A8C
:10232800D8900E320D320C320B32000E0B14056EA3
:10233800000E0C14066E000E0D14076EFE0E0E1421
:10234800086E0550061007100810D8B40DD0E7D74E
:102358000A2A010E0B26000E0C220D220E22D890FE
:102368000E320D320C320B32000E0B14056E000EBD
:102378000C14066E000E0D14076EFF0E0E14086E78
:102388000550061007100810D8B407D0E1D70A0680
:10239800D8900B360C360D360E360DBE03D0020E15
:1023A8000A60F5D70AA00D9ED8900A320AC005F037
:1023B800066A076A086A05C008F0076A066A056AB5
:1023C80005500B1206500C1207500D1208500E1231
:1023D8000950D8A404AE01D00E8E0BC001F00CC079
:1023E80002F00DC003F00EC004F01200000E281415
:1023F800306E000E2914316E800E2A14326E7F0E54
:102408002B14336E3050311032103310D8A408D04A
:10241800000E286E000E296E000E2A6E000E2B6E1E
:10242800000E2C14306E000E2D14316E800E2E14FA
:10243800326E7F0E2F14336E30503110321033103D
:10244800D8A408D0000E2C6E000E2D6E000E2E6E35
:10245800000E2F6E2BAE09D0286C291ED8B0292A61
:102468002A1ED8B02A2A800E2B562FAE09D02C6CE3
:102478002D1ED8B02D2A2E1ED8B02E2A800E2F56EB
:10248800000E281A000E291A000E2A1A800E2B1A7E
:10249800000E2C1A000E2D1A000E2E1A800E2F1A5E
:1024A8002C50285C2D5029582E502A582F502B5824
:1024B800D8B002D0D8901200D8801200CFC00BF04C
:1024C800D0C00CF0D1C00DF0D2C00EF001C00BF09E
:1024D80002C00CF003C00DF004C00EF00BC005F0F4
:1024E8000CC006F00DC007F00EC008F0180E05D09D
:1024F800D8900832073206320532E82EF9D705504F
:10250800096E0A6A09500A10D8A419D0D8900B3459
:10251800056E0C34066E0D34076E0E34086E0550C9
:10252800061007100810D8A405D0000E026E020E7F
:10253800016E1200000E026E030E016E12000928D1
:102548000A10D8A41CD00BC005F00CC006F00DC0B2
:1025580007F00EC008F0090ED89005360636073683
:102568000836E82EF9D70550061007100810D8A429
:1025780002D0010E01D0000E016E026A1200000E98
:10258800026E040E016E1200033404340A6E0A50FF
:10259800D8A409D0000E016E000E026E000E036E64
:1025A800000E046E120001C005F002C006F003C060
:1025B80007F004C008F0200E05D0D8900832073282
:1025C80006320532E82EF9D70550096E038EFF0E44
:1025D8000116FF0E0216FF0E0316000E0416960EC5
:1025E8000A5E0AAE0DD00A50800A970FD8A0D2D73B
:1025F800D89004320332023201320A3EF9D70DD0A4
:102608001F0E0A6407D0C6D7D890013602360336A3
:1026180004360A060A50D8A4F7D70950D8B408D007
:10262800041E031E021E016C000E02220322042255
:1026380001C001F002C002F003C003F004C004F0BE
:10264800120001C008F002C009F003C00AF004C07B
:102658000BF00506D8A0060605280FE10628D8A421
:102668000CD0000E026E000E016E1200084A092AF4
:102678000A4A0B2A0506D8A0060608C0D9FF09C0D1
:10268800DAFFDF50D8B41CD00AC0F6FF0BC0F7FF42
:102698000800F5500009D8B413D005500610D8B476
:1026A8000FD008C0D9FF09C0DAFFDF50076E0AC093
:1026B800F6FF0BC0F7FF0800F5500718D8B4D6D7B7
:1026C80008C0D9FF09C0DAFFDF50076E0AC0F6FF5D
:1026D8000BC0F7FF0800F550075C016E026AD8A02E
:1026E8000206120003500410D8B404D0035004109A
:1026F800D8A404D0015063EC17F0120020EE04F0C7
:102708000350D9260450DA22DE50DE10D8B416D091
:1027180020EE04F00350D9260450DA2210EE02F01D
:102728000350E1260450E222DE50E65CE650800ABF
:10273800096EDE50800A0958D8B0120020EE02F067
:102748000350D9260450DA22DECF05F0DDCF06F09B
:1027580003C0D9FF04C0DAFFDECF07F0DDCF08F0F1
:1027680005500724D96E06500820DA6E01C0DFFF35
:1027780020EE02F00350D9260450DA22DE2A000E99
:10278800DD2212000001DDA10AD013C00AF014C036
:102798000BF011C00CF012C00DF052EC16F016BE82
:1027A80005D015C01AF016C01BF004D0000E1B6E21
:1027B800000E1A6E000E196E000E186E0CD0000E68
:1027C800026E200E016E11C003F012C004F076EC08
:1027D80013F0184A192A1A50185C1950800A176EF3
:1027E8001B50800A1758D8A0EAD70001DDB10AD0DB
:1027F80013C00AF014C00BF011C00CF012C00DF099
:1028080052EC16F013C001F014C002F000EC17F0FF
:102818001A500124116E1B500220126E1200000E75
:102828000114096E000E02140A6E800E03140B6E5A
:102838007F0E04140C6E09500A100B100C10D8A44B
:1028480008D0000E016E000E026E000E036E000E20
:10285800046E000E0514096E000E06140A6E800E32
:1028680007140B6E7F0E08140C6E09500A100B101B
:102878000C10D8A408D0000E056E000E066E000ECF
:10288800076E000E086E055001180AE1065002187E
:1028980007E10750031804E108500418D8B402D01F
:1028A800D8901200D8801200000E066E04AE06D032
:1028B800036C041ED8B0042A010E066E02AE06D0C0
:1028C800016C021ED8B0022A010E061A000E086E0C
:1028D800000E076E03500410D8B41CD0010E056E0C
:1028E80004D0D89003360436052A04AEFAD7D89017
:1028F800073608360350015C04500258D8A005D0AA
:102908000350015E0450025A0780D8900432033203
:10291800052EEDD70650D8B404D0076C081ED8B0E1
:10292800082A07C001F008C002F01200000EEAEC05
:1029380016F0680E046EE40EE82EFED7042EFCD7BF
:1029480000D0030E4CEC17F01A0E046EF80EE82EA9
:10295800FED7042EFCD700D0030E4CEC17F03A0E2D
:10296800046E230EE82EFED7042EFCD700F0030ECB
:102978004CEC17F0020E4CEC17F0020E4CEC17F072
:10298800080E4CEC17F0000E4CEC17F00C0E4CEC4B
:1029980017F0000E4CEC17F0060E4CEC17F0120076
:1029A800000E0A6E000E096E1AD009500524076E33
:1029B8000A500620086E07C0F6FF08C0F7FFF86A3D
:1029C800070EF76403D00800F55005D0F6CFE1FFF5
:1029D800F7CFE2FFE7506EEC16F0094A0A2A0950D1
:1029E8000524076E0A500620086E07C0F6FF08C0C7
:1029F800F7FFF86A070EF76403D00800F55005D012
:102A0800F6CFE1FFF7CFE2FFE7500009D8B4120094
:102A1800CCD7000E066E02AE06D0016C021ED8B0EE
:102A2800022A010E066E04AE04D0036C041ED8B050
:102A3800042A03500410D8B418D0010E056E04D02F
:102A4800D89003360436052A04AEFAD70350015C41
:102A580004500258D8A004D00350015E0450025A12
:102A6800D89004320332052EF1D70650D8B404D0DA
:102A7800016C021ED8B0022A01C001F002C002F0A7
:102A88001200B1C0B5F0B2C0B6F0000E0001D86FA8
:102A9800000ED76F13D0AFC09DF0B0C09EF0B50E3A
:102AA8009F6F000EA06FB3C0A1F0B4C0A2F0E2EC1B
:102AB80008F000019D51D7279E51D823B5C0F6FFD5
:102AC800B6C0F7FF0800F5500009D8A4E4D7D7C06E
:102AD800AFF0D8C0B0F01200BB0E0001C16F000EFD
:102AE800C26FB7C0C3F0B8C0C4F0000EC66F000E06
:102AF800C56F000EC86F000EC76FC30EAF6F000E14
:102B0800B06FB9C0B1F0BAC0B2F0C10EB36F000E69
:102B1800B46F45EC15F00001C551B725D96EC65103
:102B2800B821DA6E000EDF6E120003C007F004C091
:102B380008F001C009F002C00AF00750056E0850FD
:102B4800066E074A082A05C0F6FF06C0F7FFF86AAE
:102B580009C0D9FF0AC0DAFF094A0A2A070EF76432
:102B680003D00800F55005D0F6CFE1FFF7CFE2FF1C
:102B7800E750DF6EDF50D8B41200DFD7056E0504CA
:102B8800D8A410D004507F0F086E08380F0B066EBB
:102B980008500F0B076E06504CEC17F007504CEC22
:102BA80017F01200020E0518D8A412000450BF0F27
:102BB800086E08380F0B066E08500F0B076E06508C
:102BC8004CEC17F007504CEC17F01200BF0E096ED2
:102BD800FF0E0A6E07C00BF008C00CF009500B2658
:102BE8000A500C220C5006E11A0E0B5CD8B002D029
:102BF800010E01D0000E0D6E0E6A0D500E10D8B4E5
:102C080006D0200E0710076E0850086E120007C085
:102C180007F008C008F01200000E2C1A000E2D1A3A
:102C2800000E2E1A800E2F1A28C001F029C002F0BB
:102C38002AC003F02BC004F02CC005F02DC006F00C
:102C48002EC007F02FC008F064EC0CF001C028F08B
:102C580002C029F003C02AF004C02BF01200010EB4
:102C6800076E200E01180210D8B414D0F70E036EA8
:102C7800FF0E046E01C005F002C006F003500526E1
:102C880004500622065004E1050E055CD8A002D0C7
:102C9800000E076E07C001F0026A1200000E106EE7
:102CA800000E0F6E0BD00EC001F0026A0CC003F0CC
:102CB8000DC004F076EC13F00F4A102A0F500A24C6
:102CC800D96E10500B20DA6EDF500E6E0E50D8B44D
:102CD8001200E9D7046E04500F0B026E0450F00B7B
:102CE800036E838403380F0BEAEC16F08386350EE7
:102CF800E82EFED700F083960250EAEC16F08386A1
:102D0800350EE82EFED700F083961200036E0D0EE6
:102D1800036405D0000E026E000E016E1200000E54
:102D2800C26E0344E846FC0BC26EC280C282C2B2C5
:102D3800FED7C290C3CF01F0C4CF02F01200BF0E7D
:102D4800036EFF0E046E01C005F002C006F00350CA
:102D5800052604500622065006E11A0E055CD8B076
:102D680002D0010E01D0000E016E026A1200D00ED0
:102D7800036EFF0E046E01C005F002C006F003509A
:102D8800052604500622065006E10A0E055CD8B056
:102D980002D0010E01D0000E016E026A120001502D
:102DA800021003100410D8B408D0000E011A000E47
:102DB800021A000E031A800E041A01C001F002C0A4
:102DC80002F003C003F004C004F01200016E01A079
:102DD80002D0838801D0839801A202D0838A01D0CF
:102DE800839A01A402D0838C01D0839C01A602D0CF
:102DF800838E1200839E120001C003F002C004F00B
:102E080002D0014A022A01C0D9FF02C0DAFFDF500E
:102E1800D8A4F7D70350015C016E04500258026E23
:102E2800120001500302F3CF05F0F4CF06F0015071
:102E38000402F350062602500302F350062605C08A
:102E480001F006C002F01200C150F00B0E09C16E6D
:102E5800CF0EC116000EC26EC050C70B1009C06E4F
:102E6800C050F80B0509C06EC08EC280120001EE7A
:102E780000F0500EEE6AE806FDE100EECBF02A0EF7
:102E8800EE6AE806FDE1000EF86E000109EF10F0A9
:102E9800036E83940350EAEC16F08386150E026ED7
:102EA800C60EE82EFED7022EFCD700D0839612005D
:102EB800000E4CEC17F0010E4CEC17F0120012004B
:020000040020DA
:08000000FFFFFFFFFFFFFFFF00
:020000040030CA
:0E000000000C1F1FFF8381FF0FC00FE00F4099
:00000001FF
